{
  "_format": "hh-sol-artifact-1",
  "contractName": "CanonThread",
  "sourceName": "contracts/CanonThread.sol",
  "abi": [
    {
      "inputs": [
        {
          "internalType": "address",
          "name": "_tokenAddress",
          "type": "address"
        }
      ],
      "stateMutability": "nonpayable",
      "type": "constructor"
    },
    {
      "anonymous": false,
      "inputs": [
        {
          "indexed": true,
          "internalType": "string",
          "name": "contentType",
          "type": "string"
        },
        {
          "indexed": false,
          "internalType": "string",
          "name": "contentHash",
          "type": "string"
        }
      ],
      "name": "ContentAdded",
      "type": "event"
    },
    {
      "anonymous": false,
      "inputs": [
        {
          "indexed": false,
          "internalType": "string",
          "name": "oldContentHash",
          "type": "string"
        },
        {
          "indexed": false,
          "internalType": "string",
          "name": "newContentHash",
          "type": "string"
        }
      ],
      "name": "ContentUpdated",
      "type": "event"
    },
    {
      "anonymous": false,
      "inputs": [
        {
          "indexed": true,
          "internalType": "uint256",
          "name": "nodeId",
          "type": "uint256"
        },
        {
          "indexed": true,
          "internalType": "uint256",
          "name": "threadId",
          "type": "uint256"
        },
        {
          "indexed": false,
          "internalType": "enum CanonThread.NodeType",
          "name": "nodeType",
          "type": "uint8"
        },
        {
          "indexed": false,
          "internalType": "string",
          "name": "metadataHash",
          "type": "string"
        },
        {
          "indexed": false,
          "internalType": "string",
          "name": "contentHash",
          "type": "string"
        }
      ],
      "name": "NodeCreated",
      "type": "event"
    },
    {
      "anonymous": false,
      "inputs": [
        {
          "indexed": true,
          "internalType": "uint256",
          "name": "proposalId",
          "type": "uint256"
        },
        {
          "indexed": true,
          "internalType": "uint256",
          "name": "threadId",
          "type": "uint256"
        },
        {
          "indexed": false,
          "internalType": "address",
          "name": "proposer",
          "type": "address"
        },
        {
          "indexed": false,
          "internalType": "uint256",
          "name": "stake",
          "type": "uint256"
        },
        {
          "indexed": false,
          "internalType": "uint256",
          "name": "deadline",
          "type": "uint256"
        }
      ],
      "name": "ProposalCreated",
      "type": "event"
    },
    {
      "anonymous": false,
      "inputs": [
        {
          "indexed": true,
          "internalType": "uint256",
          "name": "proposalId",
          "type": "uint256"
        },
        {
          "indexed": false,
          "internalType": "bool",
          "name": "passed",
          "type": "bool"
        }
      ],
      "name": "ProposalExecuted",
      "type": "event"
    },
    {
      "anonymous": false,
      "inputs": [
        {
          "indexed": true,
          "internalType": "uint256",
          "name": "threadId",
          "type": "uint256"
        },
        {
          "indexed": false,
          "internalType": "address",
          "name": "creator",
          "type": "address"
        },
        {
          "indexed": false,
          "internalType": "string",
          "name": "metadataHash",
          "type": "string"
        },
        {
          "indexed": false,
          "internalType": "string",
          "name": "contentHash",
          "type": "string"
        }
      ],
      "name": "ThreadCreated",
      "type": "event"
    },
    {
      "anonymous": false,
      "inputs": [
        {
          "indexed": true,
          "internalType": "uint256",
          "name": "threadId",
          "type": "uint256"
        },
        {
          "indexed": false,
          "internalType": "string",
          "name": "newMetadataHash",
          "type": "string"
        },
        {
          "indexed": false,
          "internalType": "string",
          "name": "newContentHash",
          "type": "string"
        },
        {
          "indexed": false,
          "internalType": "uint256",
          "name": "version",
          "type": "uint256"
        }
      ],
      "name": "ThreadUpdated",
      "type": "event"
    },
    {
      "anonymous": false,
      "inputs": [
        {
          "indexed": true,
          "internalType": "uint256",
          "name": "proposalId",
          "type": "uint256"
        },
        {
          "indexed": false,
          "internalType": "address",
          "name": "voter",
          "type": "address"
        },
        {
          "indexed": false,
          "internalType": "bool",
          "name": "support",
          "type": "bool"
        },
        {
          "indexed": false,
          "internalType": "uint256",
          "name": "amount",
          "type": "uint256"
        }
      ],
      "name": "Voted",
      "type": "event"
    },
    {
      "inputs": [],
      "name": "MINIMUM_STAKE",
      "outputs": [
        {
          "internalType": "uint256",
          "name": "",
          "type": "uint256"
        }
      ],
      "stateMutability": "view",
      "type": "function"
    },
    {
      "inputs": [],
      "name": "VOTING_BUFFER",
      "outputs": [
        {
          "internalType": "uint256",
          "name": "",
          "type": "uint256"
        }
      ],
      "stateMutability": "view",
      "type": "function"
    },
    {
      "inputs": [],
      "name": "VOTING_PERIOD",
      "outputs": [
        {
          "internalType": "uint256",
          "name": "",
          "type": "uint256"
        }
      ],
      "stateMutability": "view",
      "type": "function"
    },
    {
      "inputs": [
        {
          "internalType": "uint256",
          "name": "_threadId",
          "type": "uint256"
        },
        {
          "internalType": "string",
          "name": "_metadataHash",
          "type": "string"
        },
        {
          "internalType": "string",
          "name": "_contentHash",
          "type": "string"
        },
        {
          "internalType": "enum CanonThread.NodeType",
          "name": "_nodeType",
          "type": "uint8"
        }
      ],
      "name": "createNode",
      "outputs": [
        {
          "internalType": "uint256",
          "name": "",
          "type": "uint256"
        }
      ],
      "stateMutability": "nonpayable",
      "type": "function"
    },
    {
      "inputs": [
        {
          "internalType": "string",
          "name": "_metadataHash",
          "type": "string"
        },
        {
          "internalType": "string",
          "name": "_contentHash",
          "type": "string"
        }
      ],
      "name": "createThread",
      "outputs": [
        {
          "internalType": "uint256",
          "name": "",
          "type": "uint256"
        }
      ],
      "stateMutability": "nonpayable",
      "type": "function"
    },
    {
      "inputs": [
        {
          "internalType": "uint256",
          "name": "_proposalId",
          "type": "uint256"
        }
      ],
      "name": "executeProposal",
      "outputs": [],
      "stateMutability": "nonpayable",
      "type": "function"
    },
    {
      "inputs": [
        {
          "internalType": "uint256",
          "name": "",
          "type": "uint256"
        },
        {
          "internalType": "address",
          "name": "",
          "type": "address"
        }
      ],
      "name": "hasVoted",
      "outputs": [
        {
          "internalType": "bool",
          "name": "",
          "type": "bool"
        }
      ],
      "stateMutability": "view",
      "type": "function"
    },
    {
      "inputs": [
        {
          "internalType": "string",
          "name": "_hash",
          "type": "string"
        }
      ],
      "name": "isValidIPFSHash",
      "outputs": [
        {
          "internalType": "bool",
          "name": "",
          "type": "bool"
        }
      ],
      "stateMutability": "pure",
      "type": "function"
    },
    {
      "inputs": [],
      "name": "nodeCounter",
      "outputs": [
        {
          "internalType": "uint256",
          "name": "",
          "type": "uint256"
        }
      ],
      "stateMutability": "view",
      "type": "function"
    },
    {
      "inputs": [
        {
          "internalType": "uint256",
          "name": "",
          "type": "uint256"
        }
      ],
      "name": "nodes",
      "outputs": [
        {
          "internalType": "string",
          "name": "metadataHash",
          "type": "string"
        },
        {
          "internalType": "string",
          "name": "contentHash",
          "type": "string"
        },
        {
          "internalType": "enum CanonThread.NodeType",
          "name": "nodeType",
          "type": "uint8"
        },
        {
          "internalType": "address",
          "name": "creator",
          "type": "address"
        },
        {
          "internalType": "uint256",
          "name": "timestamp",
          "type": "uint256"
        },
        {
          "internalType": "uint256",
          "name": "threadId",
          "type": "uint256"
        },
        {
          "internalType": "bool",
          "name": "isActive",
          "type": "bool"
        }
      ],
      "stateMutability": "view",
      "type": "function"
    },
    {
      "inputs": [],
      "name": "proposalCounter",
      "outputs": [
        {
          "internalType": "uint256",
          "name": "",
          "type": "uint256"
        }
      ],
      "stateMutability": "view",
      "type": "function"
    },
    {
      "inputs": [
        {
          "internalType": "uint256",
          "name": "",
          "type": "uint256"
        }
      ],
      "name": "proposals",
      "outputs": [
        {
          "internalType": "uint256",
          "name": "threadId",
          "type": "uint256"
        },
        {
          "internalType": "string",
          "name": "proposedMetadataHash",
          "type": "string"
        },
        {
          "internalType": "string",
          "name": "proposedContentHash",
          "type": "string"
        },
        {
          "internalType": "address",
          "name": "proposer",
          "type": "address"
        },
        {
          "internalType": "uint256",
          "name": "stake",
          "type": "uint256"
        },
        {
          "internalType": "uint256",
          "name": "votesFor",
          "type": "uint256"
        },
        {
          "internalType": "uint256",
          "name": "votesAgainst",
          "type": "uint256"
        },
        {
          "internalType": "uint256",
          "name": "deadline",
          "type": "uint256"
        },
        {
          "internalType": "bool",
          "name": "executed",
          "type": "bool"
        },
        {
          "internalType": "bool",
          "name": "passed",
          "type": "bool"
        }
      ],
      "stateMutability": "view",
      "type": "function"
    },
    {
      "inputs": [
        {
          "internalType": "uint256",
          "name": "_threadId",
          "type": "uint256"
        },
        {
          "internalType": "string",
          "name": "_newMetadataHash",
          "type": "string"
        },
        {
          "internalType": "string",
          "name": "_newContentHash",
          "type": "string"
        },
        {
          "internalType": "uint256",
          "name": "_stake",
          "type": "uint256"
        }
      ],
      "name": "proposeUpdate",
      "outputs": [
        {
          "internalType": "uint256",
          "name": "",
          "type": "uint256"
        }
      ],
      "stateMutability": "nonpayable",
      "type": "function"
    },
    {
      "inputs": [],
      "name": "threadCounter",
      "outputs": [
        {
          "internalType": "uint256",
          "name": "",
          "type": "uint256"
        }
      ],
      "stateMutability": "view",
      "type": "function"
    },
    {
      "inputs": [
        {
          "internalType": "uint256",
          "name": "",
          "type": "uint256"
        }
      ],
      "name": "threads",
      "outputs": [
        {
          "internalType": "string",
          "name": "metadataHash",
          "type": "string"
        },
        {
          "internalType": "string",
          "name": "contentHash",
          "type": "string"
        },
        {
          "internalType": "address",
          "name": "creator",
          "type": "address"
        },
        {
          "internalType": "uint256",
          "name": "version",
          "type": "uint256"
        },
        {
          "internalType": "uint256",
          "name": "timestamp",
          "type": "uint256"
        },
        {
          "internalType": "bool",
          "name": "isActive",
          "type": "bool"
        }
      ],
      "stateMutability": "view",
      "type": "function"
    },
    {
      "inputs": [],
      "name": "token",
      "outputs": [
        {
          "internalType": "contract CanonToken",
          "name": "",
          "type": "address"
        }
      ],
      "stateMutability": "view",
      "type": "function"
    },
    {
      "inputs": [
        {
          "internalType": "uint256",
          "name": "_threadId",
          "type": "uint256"
        },
        {
          "internalType": "string",
          "name": "_newMetadataHash",
          "type": "string"
        },
        {
          "internalType": "string",
          "name": "_newContentHash",
          "type": "string"
        }
      ],
      "name": "updateThread",
      "outputs": [],
      "stateMutability": "nonpayable",
      "type": "function"
    },
    {
      "inputs": [
        {
          "internalType": "uint256",
          "name": "_proposalId",
          "type": "uint256"
        },
        {
          "internalType": "bool",
          "name": "_support",
          "type": "bool"
        },
        {
          "internalType": "uint256",
          "name": "_amount",
          "type": "uint256"
        }
      ],
      "name": "vote",
      "outputs": [],
      "stateMutability": "nonpayable",
      "type": "function"
    }
  ],
  "bytecode": "0x60806040523480156200001157600080fd5b50604051620030f2380380620030f28339818101604052810190620000379190620000f1565b80600460006101000a81548173ffffffffffffffffffffffffffffffffffffffff021916908373ffffffffffffffffffffffffffffffffffffffff16021790555060006006819055505062000123565b600080fd5b600073ffffffffffffffffffffffffffffffffffffffff82169050919050565b6000620000b9826200008c565b9050919050565b620000cb81620000ac565b8114620000d757600080fd5b50565b600081519050620000eb81620000c0565b92915050565b6000602082840312156200010a576200010962000087565b5b60006200011a84828501620000da565b91505092915050565b612fbf80620001336000396000f3fe608060405234801561001057600080fd5b50600436106101165760003560e01c80638e5b14b5116100a2578063cb1650b411610071578063cb1650b414610306578063cea5a96114610336578063d46a5d7e14610366578063f552b2ba14610382578063fc0c546a146103b757610116565b80638e5b14b51461027e5780639b73be46146102ae578063b1610d7e146102ca578063c7b219d6146102e857610116565b8063191eb4c6116100e9578063191eb4c6146101ac5780631c53c280146101ca5780631ca02e6314610200578063438596321461021e5780636262ecd31461024e57610116565b8063013cf08b1461011b57806308dbbb03146101545780630c0512e9146101725780630d61b51914610190575b600080fd5b61013560048036038101906101309190611b25565b6103d5565b60405161014b9a99989796959493929190611c4d565b60405180910390f35b61015c610573565b6040516101699190611cf7565b60405180910390f35b61017a610580565b6040516101879190611cf7565b60405180910390f35b6101aa60048036038101906101a59190611b25565b610586565b005b6101b4610824565b6040516101c19190611cf7565b60405180910390f35b6101e460048036038101906101df9190611b25565b61082a565b6040516101f79796959493929190611d89565b60405180910390f35b6102086109b6565b6040516102159190611cf7565b60405180910390f35b61023860048036038101906102339190611e32565b6109bc565b6040516102459190611e72565b60405180910390f35b61026860048036038101906102639190611fe7565b6109eb565b6040516102759190611cf7565b60405180910390f35b61029860048036038101906102939190612086565b610c90565b6040516102a59190611cf7565b60405180910390f35b6102c860048036038101906102c39190612125565b611094565b005b6102d26112cc565b6040516102df9190611cf7565b60405180910390f35b6102f06112d3565b6040516102fd9190611cf7565b60405180910390f35b610320600480360381019061031b91906121b0565b6112d8565b60405161032d9190611cf7565b60405180910390f35b610350600480360381019061034b9190612228565b6114d0565b60405161035d9190611e72565b60405180910390f35b610380600480360381019061037b919061229d565b6115d2565b005b61039c60048036038101906103979190611b25565b61193c565b6040516103ae969594939291906122f0565b60405180910390f35b6103bf611ab5565b6040516103cc91906123be565b60405180910390f35b60056020528060005260406000206000915090508060000154908060010180546103fe90612408565b80601f016020809104026020016040519081016040528092919081815260200182805461042a90612408565b80156104775780601f1061044c57610100808354040283529160200191610477565b820191906000526020600020905b81548152906001019060200180831161045a57829003601f168201915b50505050509080600201805461048c90612408565b80601f01602080910402602001604051908101604052809291908181526020018280546104b890612408565b80156105055780601f106104da57610100808354040283529160200191610505565b820191906000526020600020905b8154815290600101906020018083116104e857829003601f168201915b5050505050908060030160009054906101000a900473ffffffffffffffffffffffffffffffffffffffff16908060040154908060050154908060060154908060070154908060080160009054906101000a900460ff16908060080160019054906101000a900460ff1690508a565b68056bc75e2d6310000081565b60065481565b6000600560008381526020019081526020016000209050603c81600701546105ae9190612468565b4210156105f0576040517f08c379a00000000000000000000000000000000000000000000000000000000081526004016105e7906124e8565b60405180910390fd5b8060080160009054906101000a900460ff1615610642576040517f08c379a000000000000000000000000000000000000000000000000000000000815260040161063990612554565b60405180910390fd5b60018160080160006101000a81548160ff0219169083151502179055508060060154816005015411156107b95760018160080160016101000a81548160ff0219169083151502179055506000806000836000015481526020019081526020016000209050816001018160000190816106ba9190612741565b50816002018160010190816106cf9190612741565b508060030160008154809291906106e590612829565b9190505550600460009054906101000a900473ffffffffffffffffffffffffffffffffffffffff1673ffffffffffffffffffffffffffffffffffffffff1663a9059cbb8360030160009054906101000a900473ffffffffffffffffffffffffffffffffffffffff1684600401546040518363ffffffff1660e01b815260040161076f929190612871565b6020604051808303816000875af115801561078e573d6000803e3d6000fd5b505050506040513d601f19601f820116820180604052508101906107b291906128af565b50506107d7565b60008160080160016101000a81548160ff0219169083151502179055505b817f948f4a9cd986f1118c3fbd459f7a22b23c0693e1ca3ef06a6a8be5aa7d39cc038260080160019054906101000a900460ff166040516108189190611e72565b60405180910390a25050565b60025481565b600160205280600052604060002060009150905080600001805461084d90612408565b80601f016020809104026020016040519081016040528092919081815260200182805461087990612408565b80156108c65780601f1061089b576101008083540402835291602001916108c6565b820191906000526020600020905b8154815290600101906020018083116108a957829003601f168201915b5050505050908060010180546108db90612408565b80601f016020809104026020016040519081016040528092919081815260200182805461090790612408565b80156109545780601f1061092957610100808354040283529160200191610954565b820191906000526020600020905b81548152906001019060200180831161093757829003601f168201915b5050505050908060020160009054906101000a900460ff16908060020160019054906101000a900473ffffffffffffffffffffffffffffffffffffffff16908060030154908060040154908060050160009054906101000a900460ff16905087565b60035481565b60076020528160005260406000206020528060005260406000206000915091509054906101000a900460ff1681565b600080600086815260200190815260200160002060050160009054906101000a900460ff16610a4f576040517f08c379a0000000000000000000000000000000000000000000000000000000008152600401610a4690612928565b60405180910390fd5b610a58846114d0565b610a97576040517f08c379a0000000000000000000000000000000000000000000000000000000008152600401610a8e90612994565b60405180910390fd5b610aa0836114d0565b610adf576040517f08c379a0000000000000000000000000000000000000000000000000000000008152600401610ad690612a00565b60405180910390fd5b60036000815480929190610af290612829565b91905055506040518060e00160405280858152602001848152602001836006811115610b2157610b20611d12565b5b81526020013373ffffffffffffffffffffffffffffffffffffffff168152602001428152602001868152602001600115158152506001600060035481526020019081526020016000206000820151816000019081610b7f9190612a20565b506020820151816001019081610b959190612a20565b5060408201518160020160006101000a81548160ff02191690836006811115610bc157610bc0611d12565b5b021790555060608201518160020160016101000a81548173ffffffffffffffffffffffffffffffffffffffff021916908373ffffffffffffffffffffffffffffffffffffffff1602179055506080820151816003015560a0820151816004015560c08201518160050160006101000a81548160ff021916908315150217905550905050846003547f4ad9bba3461e946a892efbe1a3f5f912b4a3f2e77f47f60e9f1e01dd56dffdb5848787604051610c7b93929190612af2565b60405180910390a36003549050949350505050565b600068056bc75e2d63100000821015610cde576040517f08c379a0000000000000000000000000000000000000000000000000000000008152600401610cd590612b83565b60405180910390fd5b60008086815260200190815260200160002060050160009054906101000a900460ff16610d40576040517f08c379a0000000000000000000000000000000000000000000000000000000008152600401610d3790612928565b60405180910390fd5b610d49846114d0565b610d88576040517f08c379a0000000000000000000000000000000000000000000000000000000008152600401610d7f90612994565b60405180910390fd5b610d91836114d0565b610dd0576040517f08c379a0000000000000000000000000000000000000000000000000000000008152600401610dc790612a00565b60405180910390fd5b600460009054906101000a900473ffffffffffffffffffffffffffffffffffffffff1673ffffffffffffffffffffffffffffffffffffffff166323b872dd3330856040518463ffffffff1660e01b8152600401610e2f93929190612ba3565b6020604051808303816000875af1158015610e4e573d6000803e3d6000fd5b505050506040513d601f19601f82011682018060405250810190610e7291906128af565b610eb1576040517f08c379a0000000000000000000000000000000000000000000000000000000008152600401610ea890612c26565b60405180910390fd5b60066000815480929190610ec490612829565b91905055506040518061014001604052808681526020018581526020018481526020013373ffffffffffffffffffffffffffffffffffffffff16815260200183815260200160008152602001600081526020016203f48042610f269190612468565b815260200160001515815260200160001515815250600560006006548152602001908152602001600020600082015181600001556020820151816001019081610f6f9190612a20565b506040820151816002019081610f859190612a20565b5060608201518160030160006101000a81548173ffffffffffffffffffffffffffffffffffffffff021916908373ffffffffffffffffffffffffffffffffffffffff1602179055506080820151816004015560a0820151816005015560c0820151816006015560e082015181600701556101008201518160080160006101000a81548160ff0219169083151502179055506101208201518160080160016101000a81548160ff021916908315150217905550905050846006547fa67ca5ea1ca35cfdf24fd867604d1db6d4cdb7b7df1f737293e16e549ac45fd033856203f480426110709190612468565b60405161107f93929190612c46565b60405180910390a36006549050949350505050565b60008084815260200190815260200160002060050160009054906101000a900460ff166110f6576040517f08c379a00000000000000000000000000000000000000000000000000000000081526004016110ed90612928565b60405180910390fd5b3373ffffffffffffffffffffffffffffffffffffffff1660008085815260200190815260200160002060020160009054906101000a900473ffffffffffffffffffffffffffffffffffffffff1673ffffffffffffffffffffffffffffffffffffffff1614611199576040517f08c379a000000000000000000000000000000000000000000000000000000000815260040161119090612cc9565b60405180910390fd5b6111a2826114d0565b6111e1576040517f08c379a00000000000000000000000000000000000000000000000000000000081526004016111d890612994565b60405180910390fd5b6111ea816114d0565b611229576040517f08c379a000000000000000000000000000000000000000000000000000000000815260040161122090612a00565b60405180910390fd5b60008060008581526020019081526020016000209050828160000190816112509190612a20565b50818160010190816112629190612a20565b5080600301600081548092919061127890612829565b9190505550428160040181905550837f9aac02c846a391ebcc431cf32209849eb70d2dd45c501b6a50997d38b0292d75848484600301546040516112be93929190612ce9565b60405180910390a250505050565b6203f48081565b603c81565b60006112e3836114d0565b611322576040517f08c379a000000000000000000000000000000000000000000000000000000000815260040161131990612994565b60405180910390fd5b61132b826114d0565b61136a576040517f08c379a000000000000000000000000000000000000000000000000000000000815260040161136190612a00565b60405180910390fd5b6002600081548092919061137d90612829565b91905055506040518060c001604052808481526020018381526020013373ffffffffffffffffffffffffffffffffffffffff1681526020016001815260200142815260200160011515815250600080600254815260200190815260200160002060008201518160000190816113f29190612a20565b5060208201518160010190816114089190612a20565b5060408201518160020160006101000a81548173ffffffffffffffffffffffffffffffffffffffff021916908373ffffffffffffffffffffffffffffffffffffffff160217905550606082015181600301556080820151816004015560a08201518160050160006101000a81548160ff0219169083151502179055509050506002547faafda774caeb60f01f42dff1f1fb9ac772090761e7edde8bbfe7b17cffee45ed3385856040516114bd93929190612d2e565b60405180910390a2600254905092915050565b600080829050602e8151146114e95760009150506115cd565b7f51000000000000000000000000000000000000000000000000000000000000008160008151811061151e5761151d612d73565b5b602001015160f81c60f81b7effffffffffffffffffffffffffffffffffffffffffffffffffffffffffffff19161415806115b857507f6d000000000000000000000000000000000000000000000000000000000000008160018151811061158857611587612d73565b5b602001015160f81c60f81b7effffffffffffffffffffffffffffffffffffffffffffffffffffffffffffff191614155b156115c75760009150506115cd565b60019150505b919050565b6000600560008581526020019081526020016000209050603c81600701546115fa9190612468565b421061163b576040517f08c379a000000000000000000000000000000000000000000000000000000000815260040161163290612dee565b60405180910390fd5b8060080160009054906101000a900460ff161561168d576040517f08c379a000000000000000000000000000000000000000000000000000000000815260040161168490612554565b60405180910390fd5b6007600085815260200190815260200160002060003373ffffffffffffffffffffffffffffffffffffffff1673ffffffffffffffffffffffffffffffffffffffff16815260200190815260200160002060009054906101000a900460ff161561172b576040517f08c379a000000000000000000000000000000000000000000000000000000000815260040161172290612e5a565b60405180910390fd5b6000821161176e576040517f08c379a000000000000000000000000000000000000000000000000000000000815260040161176590612ec6565b60405180910390fd5b600460009054906101000a900473ffffffffffffffffffffffffffffffffffffffff1673ffffffffffffffffffffffffffffffffffffffff166323b872dd3330856040518463ffffffff1660e01b81526004016117cd93929190612ba3565b6020604051808303816000875af11580156117ec573d6000803e3d6000fd5b505050506040513d601f19601f8201168201806040525081019061181091906128af565b61184f576040517f08c379a000000000000000000000000000000000000000000000000000000000815260040161184690612f32565b60405180910390fd5b821561187557818160050160008282546118699190612468565b92505081905550611891565b818160060160008282546118899190612468565b925050819055505b60016007600086815260200190815260200160002060003373ffffffffffffffffffffffffffffffffffffffff1673ffffffffffffffffffffffffffffffffffffffff16815260200190815260200160002060006101000a81548160ff021916908315150217905550837f7c2de587c00d75474a0c6c6fa96fd3b45dc974cd4e8a75f712bb84c950dce1b533858560405161192e93929190612f52565b60405180910390a250505050565b600060205280600052604060002060009150905080600001805461195f90612408565b80601f016020809104026020016040519081016040528092919081815260200182805461198b90612408565b80156119d85780601f106119ad576101008083540402835291602001916119d8565b820191906000526020600020905b8154815290600101906020018083116119bb57829003601f168201915b5050505050908060010180546119ed90612408565b80601f0160208091040260200160405190810160405280929190818152602001828054611a1990612408565b8015611a665780601f10611a3b57610100808354040283529160200191611a66565b820191906000526020600020905b815481529060010190602001808311611a4957829003601f168201915b5050505050908060020160009054906101000a900473ffffffffffffffffffffffffffffffffffffffff16908060030154908060040154908060050160009054906101000a900460ff16905086565b600460009054906101000a900473ffffffffffffffffffffffffffffffffffffffff1681565b6000604051905090565b600080fd5b600080fd5b6000819050919050565b611b0281611aef565b8114611b0d57600080fd5b50565b600081359050611b1f81611af9565b92915050565b600060208284031215611b3b57611b3a611ae5565b5b6000611b4984828501611b10565b91505092915050565b611b5b81611aef565b82525050565b600081519050919050565b600082825260208201905092915050565b60005b83811015611b9b578082015181840152602081019050611b80565b60008484015250505050565b6000601f19601f8301169050919050565b6000611bc382611b61565b611bcd8185611b6c565b9350611bdd818560208601611b7d565b611be681611ba7565b840191505092915050565b600073ffffffffffffffffffffffffffffffffffffffff82169050919050565b6000611c1c82611bf1565b9050919050565b611c2c81611c11565b82525050565b60008115159050919050565b611c4781611c32565b82525050565b600061014082019050611c63600083018d611b52565b8181036020830152611c75818c611bb8565b90508181036040830152611c89818b611bb8565b9050611c98606083018a611c23565b611ca56080830189611b52565b611cb260a0830188611b52565b611cbf60c0830187611b52565b611ccc60e0830186611b52565b611cda610100830185611c3e565b611ce8610120830184611c3e565b9b9a5050505050505050505050565b6000602082019050611d0c6000830184611b52565b92915050565b7f4e487b7100000000000000000000000000000000000000000000000000000000600052602160045260246000fd5b60078110611d5257611d51611d12565b5b50565b6000819050611d6382611d41565b919050565b6000611d7382611d55565b9050919050565b611d8381611d68565b82525050565b600060e0820190508181036000830152611da3818a611bb8565b90508181036020830152611db78189611bb8565b9050611dc66040830188611d7a565b611dd36060830187611c23565b611de06080830186611b52565b611ded60a0830185611b52565b611dfa60c0830184611c3e565b98975050505050505050565b611e0f81611c11565b8114611e1a57600080fd5b50565b600081359050611e2c81611e06565b92915050565b60008060408385031215611e4957611e48611ae5565b5b6000611e5785828601611b10565b9250506020611e6885828601611e1d565b9150509250929050565b6000602082019050611e876000830184611c3e565b92915050565b600080fd5b600080fd5b7f4e487b7100000000000000000000000000000000000000000000000000000000600052604160045260246000fd5b611ecf82611ba7565b810181811067ffffffffffffffff82111715611eee57611eed611e97565b5b80604052505050565b6000611f01611adb565b9050611f0d8282611ec6565b919050565b600067ffffffffffffffff821115611f2d57611f2c611e97565b5b611f3682611ba7565b9050602081019050919050565b82818337600083830152505050565b6000611f65611f6084611f12565b611ef7565b905082815260208101848484011115611f8157611f80611e92565b5b611f8c848285611f43565b509392505050565b600082601f830112611fa957611fa8611e8d565b5b8135611fb9848260208601611f52565b91505092915050565b60078110611fcf57600080fd5b50565b600081359050611fe181611fc2565b92915050565b6000806000806080858703121561200157612000611ae5565b5b600061200f87828801611b10565b945050602085013567ffffffffffffffff8111156120305761202f611aea565b5b61203c87828801611f94565b935050604085013567ffffffffffffffff81111561205d5761205c611aea565b5b61206987828801611f94565b925050606061207a87828801611fd2565b91505092959194509250565b600080600080608085870312156120a05761209f611ae5565b5b60006120ae87828801611b10565b945050602085013567ffffffffffffffff8111156120cf576120ce611aea565b5b6120db87828801611f94565b935050604085013567ffffffffffffffff8111156120fc576120fb611aea565b5b61210887828801611f94565b925050606061211987828801611b10565b91505092959194509250565b60008060006060848603121561213e5761213d611ae5565b5b600061214c86828701611b10565b935050602084013567ffffffffffffffff81111561216d5761216c611aea565b5b61217986828701611f94565b925050604084013567ffffffffffffffff81111561219a57612199611aea565b5b6121a686828701611f94565b9150509250925092565b600080604083850312156121c7576121c6611ae5565b5b600083013567ffffffffffffffff8111156121e5576121e4611aea565b5b6121f185828601611f94565b925050602083013567ffffffffffffffff81111561221257612211611aea565b5b61221e85828601611f94565b9150509250929050565b60006020828403121561223e5761223d611ae5565b5b600082013567ffffffffffffffff81111561225c5761225b611aea565b5b61226884828501611f94565b91505092915050565b61227a81611c32565b811461228557600080fd5b50565b60008135905061229781612271565b92915050565b6000806000606084860312156122b6576122b5611ae5565b5b60006122c486828701611b10565b93505060206122d586828701612288565b92505060406122e686828701611b10565b9150509250925092565b600060c082019050818103600083015261230a8189611bb8565b9050818103602083015261231e8188611bb8565b905061232d6040830187611c23565b61233a6060830186611b52565b6123476080830185611b52565b61235460a0830184611c3e565b979650505050505050565b6000819050919050565b600061238461237f61237a84611bf1565b61235f565b611bf1565b9050919050565b600061239682612369565b9050919050565b60006123a88261238b565b9050919050565b6123b88161239d565b82525050565b60006020820190506123d360008301846123af565b92915050565b7f4e487b7100000000000000000000000000000000000000000000000000000000600052602260045260246000fd5b6000600282049050600182168061242057607f821691505b602082108103612433576124326123d9565b5b50919050565b7f4e487b7100000000000000000000000000000000000000000000000000000000600052601160045260246000fd5b600061247382611aef565b915061247e83611aef565b925082820190508082111561249657612495612439565b5b92915050565b7f566f74696e6720706572696f64206e6f7420656e646564000000000000000000600082015250565b60006124d2601783611b6c565b91506124dd8261249c565b602082019050919050565b60006020820190508181036000830152612501816124c5565b9050919050565b7f50726f706f73616c20616c726561647920657865637574656400000000000000600082015250565b600061253e601983611b6c565b915061254982612508565b602082019050919050565b6000602082019050818103600083015261256d81612531565b9050919050565b60008154905061258381612408565b9050919050565b60008190508160005260206000209050919050565b60008190508160005260206000209050919050565b60006020601f8301049050919050565b600082821b905092915050565b6000600883026126017fffffffffffffffffffffffffffffffffffffffffffffffffffffffffffffffff826125c4565b61260b86836125c4565b95508019841693508086168417925050509392505050565b600061263e61263961263484611aef565b61235f565b611aef565b9050919050565b6000819050919050565b61265883612623565b61266c61266482612645565b8484546125d1565b825550505050565b600090565b612681612674565b61268c81848461264f565b505050565b5b818110156126b0576126a5600082612679565b600181019050612692565b5050565b601f8211156126f5576126c68161258a565b6126cf846125b4565b810160208510156126de578190505b6126f26126ea856125b4565b830182612691565b50505b505050565b600082821c905092915050565b6000612718600019846008026126fa565b1980831691505092915050565b60006127318383612707565b9150826002028217905092915050565b81810361274f575050612827565b61275882612574565b67ffffffffffffffff81111561277157612770611e97565b5b61277b8254612408565b6127868282856126b4565b6000601f8311600181146127b557600084156127a3578287015490505b6127ad8582612725565b865550612820565b601f1984166127c38761259f565b96506127ce8661258a565b60005b828110156127f6578489015482556001820191506001850194506020810190506127d1565b86831015612813578489015461280f601f891682612707565b8355505b6001600288020188555050505b5050505050505b565b600061283482611aef565b91507fffffffffffffffffffffffffffffffffffffffffffffffffffffffffffffffff820361286657612865612439565b5b600182019050919050565b60006040820190506128866000830185611c23565b6128936020830184611b52565b9392505050565b6000815190506128a981612271565b92915050565b6000602082840312156128c5576128c4611ae5565b5b60006128d38482850161289a565b91505092915050565b7f54687265616420646f6573206e6f742065786973740000000000000000000000600082015250565b6000612912601583611b6c565b915061291d826128dc565b602082019050919050565b6000602082019050818103600083015261294181612905565b9050919050565b7f496e76616c6964206d6574616461746120495046532068617368000000000000600082015250565b600061297e601a83611b6c565b915061298982612948565b602082019050919050565b600060208201905081810360008301526129ad81612971565b9050919050565b7f496e76616c696420636f6e74656e742049504653206861736800000000000000600082015250565b60006129ea601983611b6c565b91506129f5826129b4565b602082019050919050565b60006020820190508181036000830152612a19816129dd565b9050919050565b612a2982611b61565b67ffffffffffffffff811115612a4257612a41611e97565b5b612a4c8254612408565b612a578282856126b4565b600060209050601f831160018114612a8a5760008415612a78578287015190505b612a828582612725565b865550612aea565b601f198416612a988661258a565b60005b82811015612ac057848901518255600182019150602085019450602081019050612a9b565b86831015612add5784890151612ad9601f891682612707565b8355505b6001600288020188555050505b505050505050565b6000606082019050612b076000830186611d7a565b8181036020830152612b198185611bb8565b90508181036040830152612b2d8184611bb8565b9050949350505050565b7f496e73756666696369656e74207374616b650000000000000000000000000000600082015250565b6000612b6d601283611b6c565b9150612b7882612b37565b602082019050919050565b60006020820190508181036000830152612b9c81612b60565b9050919050565b6000606082019050612bb86000830186611c23565b612bc56020830185611c23565b612bd26040830184611b52565b949350505050565b7f5374616b65207472616e73666572206661696c65640000000000000000000000600082015250565b6000612c10601583611b6c565b9150612c1b82612bda565b602082019050919050565b60006020820190508181036000830152612c3f81612c03565b9050919050565b6000606082019050612c5b6000830186611c23565b612c686020830185611b52565b612c756040830184611b52565b949350505050565b7f4f6e6c792063726561746f722063616e20757064617465000000000000000000600082015250565b6000612cb3601783611b6c565b9150612cbe82612c7d565b602082019050919050565b60006020820190508181036000830152612ce281612ca6565b9050919050565b60006060820190508181036000830152612d038186611bb8565b90508181036020830152612d178185611bb8565b9050612d266040830184611b52565b949350505050565b6000606082019050612d436000830186611c23565b8181036020830152612d558185611bb8565b90508181036040830152612d698184611bb8565b9050949350505050565b7f4e487b7100000000000000000000000000000000000000000000000000000000600052603260045260246000fd5b7f566f74696e6720706572696f6420656e64656400000000000000000000000000600082015250565b6000612dd8601383611b6c565b9150612de382612da2565b602082019050919050565b60006020820190508181036000830152612e0781612dcb565b9050919050565b7f416c726561647920766f74656400000000000000000000000000000000000000600082015250565b6000612e44600d83611b6c565b9150612e4f82612e0e565b602082019050919050565b60006020820190508181036000830152612e7381612e37565b9050919050565b7f4d75737420766f7465207769746820736f6d6520746f6b656e73000000000000600082015250565b6000612eb0601a83611b6c565b9150612ebb82612e7a565b602082019050919050565b60006020820190508181036000830152612edf81612ea3565b9050919050565b7f566f7465207472616e73666572206661696c6564000000000000000000000000600082015250565b6000612f1c601483611b6c565b9150612f2782612ee6565b602082019050919050565b60006020820190508181036000830152612f4b81612f0f565b9050919050565b6000606082019050612f676000830186611c23565b612f746020830185611c3e565b612f816040830184611b52565b94935050505056fea2646970667358221220445aeca808457da9cb5ef9d2334170e74c7eddf654cd173afd696b6bf1c85d6064736f6c63430008180033",
  "linkReferences": {},
  "deployedLinkReferences": {}
}