{
  "_format": "hh-sol-artifact-1",
  "contractName": "IPFSHelper",
  "sourceName": "contracts/IPFSHelper.sol",
  "abi": [
    {
      "anonymous": false,
      "inputs": [
        {
          "indexed": true,
          "internalType": "string",
          "name": "contentType",
          "type": "string"
        },
        {
          "indexed": false,
          "internalType": "string",
          "name": "contentHash",
          "type": "string"
        }
      ],
      "name": "ContentAdded",
      "type": "event"
    },
    {
      "anonymous": false,
      "inputs": [
        {
          "indexed": false,
          "internalType": "string",
          "name": "oldContentHash",
          "type": "string"
        },
        {
          "indexed": false,
          "internalType": "string",
          "name": "newContentHash",
          "type": "string"
        }
      ],
      "name": "ContentUpdated",
      "type": "event"
    },
    {
      "inputs": [
        {
          "internalType": "string",
          "name": "_hash",
          "type": "string"
        }
      ],
      "name": "isValidIPFSHash",
      "outputs": [
        {
          "internalType": "bool",
          "name": "",
          "type": "bool"
        }
      ],
      "stateMutability": "pure",
      "type": "function"
    }
  ],
  "bytecode": "0x608060405234801561001057600080fd5b506103a0806100206000396000f3fe608060405234801561001057600080fd5b506004361061002b5760003560e01c8063cea5a96114610030575b600080fd5b61004a600480360381019061004591906102bc565b610060565b6040516100579190610320565b60405180910390f35b600080829050602e81511461007957600091505061015d565b7f5100000000000000000000000000000000000000000000000000000000000000816000815181106100ae576100ad61033b565b5b602001015160f81c60f81b7effffffffffffffffffffffffffffffffffffffffffffffffffffffffffffff191614158061014857507f6d00000000000000000000000000000000000000000000000000000000000000816001815181106101185761011761033b565b5b602001015160f81c60f81b7effffffffffffffffffffffffffffffffffffffffffffffffffffffffffffff191614155b1561015757600091505061015d565b60019150505b919050565b6000604051905090565b600080fd5b600080fd5b600080fd5b600080fd5b6000601f19601f8301169050919050565b7f4e487b7100000000000000000000000000000000000000000000000000000000600052604160045260246000fd5b6101c982610180565b810181811067ffffffffffffffff821117156101e8576101e7610191565b5b80604052505050565b60006101fb610162565b905061020782826101c0565b919050565b600067ffffffffffffffff82111561022757610226610191565b5b61023082610180565b9050602081019050919050565b82818337600083830152505050565b600061025f61025a8461020c565b6101f1565b90508281526020810184848401111561027b5761027a61017b565b5b61028684828561023d565b509392505050565b600082601f8301126102a3576102a2610176565b5b81356102b384826020860161024c565b91505092915050565b6000602082840312156102d2576102d161016c565b5b600082013567ffffffffffffffff8111156102f0576102ef610171565b5b6102fc8482850161028e565b91505092915050565b60008115159050919050565b61031a81610305565b82525050565b60006020820190506103356000830184610311565b92915050565b7f4e487b7100000000000000000000000000000000000000000000000000000000600052603260045260246000fdfea2646970667358221220761af1d934bb0209ad403ce89f741cba8c6b4d936bdc2b9c36d1929b4ee055ae64736f6c63430008180033",
  "linkReferences": {},
  "deployedLinkReferences": {}
}